:060000000A128A110C280F
:10000800FE00030EF2000A08F3000A128A111428EF
:100018000A128A110F28F80183010A128A11692825
:10002800831203138C1D19281A282F280A128A11E3
:1000380072200A128A11F1007108F8007808F1009C
:1000480071070A128A1182200A128A11780883120B
:10005800031386008C1173088A00720E8300FE0E4B
:100068007E0E09008316031788018901831603137E
:1000780085168601831203138601F401F501F60142
:1000880024300A128A1153200A128A118B178312FC
:1000980003138C11831603138C150B170800F70034
:1000A800831603138712771D5A285B285F28760862
:1000B80094008715632874087604940087117708DC
:1000C800750483120313940008000A128A1136205B
:1000D8000A128A116E280A128A110C280A128A1129
:1000E8007B200A128A11831203131308080083164F
:1000F8000313141C802881287B280800F00070084E
:080108008312031393000800A9
:08400000FF3FFF3FFF3FFF3FC0
:04400E00D420FF3F7C
:00000001FF
